:100000000C9452000C945C000C945C000C945C000A
:100010000C945C000C945C000C945C000C945C00F0
:100020000C945C000C945C000C945C000C945C00E0
:100030000C945C000C945C000C945C000C945C00D0
:100040000C945C000C945C000C945C000C945C00C0
:100050000C945C000C945C000C945C000C945C00B0
:100060000C945C000C945C000C945C000C945C00A0
:100070000C945C000C945C000C945C000C945C0090
:100080000C945C000C945C000C945C000C945C0080
:100090000C945C000C945C000C945C000C945C0070
:1000A0000C945C0011241FBECFEFCDBFDFE7DEBF95
:1000B0000E945E000C945F000C940000FFCFF89447
:0200C000FFCF70
:00000001FF
