:100000000C9452000C9471000C9471000C947100CB
:100010000C9471000C9471000C9471000C9471009C
:100020000C9471000C9471000C9471000C9471008C
:100030000C9471000C9471000C9471000C9471007C
:100040000C9471000C9471000C9471000C9471006C
:100050000C9471000C9471000C9471000C9471005C
:100060000C9471000C9471000C9471000C9471004C
:100070000C9471000C9471000C9471000C9471003C
:100080000C9471000C9471000C9471000C9471002C
:100090000C9471000C9471000C9471000C9471001C
:1000A0000C94710011241FBECFEFCDBFDFE7DEBF80
:1000B00010E4A0E0B0E4E0E2F1E000E00BBF02C039
:1000C00007900D92A030B107D9F720E4A0E0B0E48A
:1000D00001C01D92A030B207E1F70E947F000C948E
:1000E0008E000C94000089E5809300041092400477
:1000F00080E68093600488E08093500408956DE862
:1001000070E088E690E00E9488000E947300FFCFB4
:10011000DC0128ED209334006C930895F894FFCF10
:00000001FF
