:100000000C9454000C9473000C9473000C947300C3
:100010000C9473000C9473000C9473000C94730094
:100020000C9473000C9461010C9473000C94730095
:100030000C9473000C9473000C9473000C94730074
:100040000C9473000C9473000C9473000C94730064
:100050000C9473000C9473000C9473000C94730054
:100060000C9473000C9473000C9473000C94730044
:100070000C9473000C9473000C9473000C94730034
:100080000C9473000C9473000C9473000C94730024
:100090000C9473000C9473000C9473000C94730014
:1000A0000C9473000C94730011241FBECFEFCDBFCE
:1000B000DFE7DEBF10E4A0E0B0E4E6EAF3E000E052
:1000C0000BBF02C007900D92A230B107D9F720E410
:1000D000A2E0B0E401C01D92A730B207E1F70E9490
:1000E00020010C94D1010C94000089E58093000458
:1000F0001092400480E68093600488E0809350046E
:10010000089586E88093B000089582E88093000601
:1001100082E08093020680910240882321F082E0F1
:100120008093080603C081E08093080680E48093F2
:10013000090691E090930E06E0E0F6E08081816090
:100140008083EFE9FFE03197F1F700C00000909362
:100150000A06089584E690E08093260A9093270A81
:1001600089E88093000A81E080930E0A80930A0A4E
:100170000895E0E0F8E080E890E08087918783E0F0
:10018000878381E0838780EC8683089590910408BB
:1001900095FFFCCF8093020808951F93CF93DF93C0
:1001A000EC0110E007C0FE01E80FF91F80810E94FA
:1001B000C6001F5F812F90E0FE0101900020E9F74B
:1001C0003197EC1BFD0B8E179F0768F3DF91CF91E2
:1001D0001F910895E0E0FAE08081816080830895B6
:1001E000F894E0E0FAE080818E7F80831092200A0C
:1001F0001092210A789408951092200A1092210AF0
:10020000089580911006909111060895CF93DF9381
:1002100000D01F92CDB7DEB740E1BE016F5F7F4FC8
:100220000E949601CE0101960E94CD0080E090E4EC
:100230000E94CD002396CDBFDEBFDF91CF91089500
:100240006DE988E690E00E94CB010E9475000E9453
:1002500081000E9485000E94AA000E94B900789443
:1002600080910240882321F080E28093650403C0DE
:1002700080E4809365048091480480FD1AC08091D9
:100280000340882369F080910440882349F38091DA
:100290000540909106400E94060110920440E0CF74
:1002A0000E94EA0081E08093034080E68093650429
:1002B000D7CF0E94F0001092034080E6809366043E
:1002C000CFCF1F920F920FB60F9211240BB60F9241
:1002D0002F933F934F935F936F937F938F939F934E
:1002E000AF93BF93CF93EF93FF93C1E0C0930B0AFB
:1002F0000E94FC000E9401018093054090930640FB
:10030000C0930440FF91EF91CF91BF91AF919F9126
:100310008F917F916F915F914F913F912F910F90AE
:100320000BBE0F900FBE0F901F901895BB274A3041
:1003300031F4992322F4BDE2909581959F4F0C945E
:10034000A201BB27FB015527AA27880F991FAA1FC7
:10035000A41710F0A41B83955051B9F7A05DAA33E0
:1003600008F0A95DA193009779F7B111B1931192AB
:10037000CB010C94BB01DC01FC01672F7191772349
:10038000E1F7329704C07C916D9370836291AE1750
:10039000BF07C8F30895DC0128ED209334006C9367
:0603A0000895F894FFCF60
:0203A6000A004B
:00000001FF
