S01600004D657373756E675F5374756469652E737265635F
S11300000C9454000C9466000C9466000C946600E6
S11300100C9466000C9466000C9466000C946600C4
S11300200C9466000C9413010C9466000C94660006
S11300300C9466000C9466000C9466000C946600A4
S11300400C9466000C9466000C9466000C94660094
S11300500C9466000C9466000C9466000C94660084
S11300600C9466000C9466000C9466000C94660074
S11300700C9466000C9466000C9466000C94660064
S11300800C9466000C9466000C9466000C94660054
S11300900C9466000C9466000C9466000C94660044
S11300A00C9466000C94660011241FBECFEFCDBFE4
S11300B0DFE7DEBF20E4A0E0B0E401C01D92A3307E
S11300C0B207E1F70E94F3000C9483010C94000042
S11300D089E5809300041092400480E680936004D4
S11300E088E080935004089586E88093B0000895D2
S11300F0E0E0F6E082E880838DE08093020681E010
S11301008093080690E49093090680930E069081EC
S113011091609083E7EEF3E03197F1F700C00000BF
S113012080930A06089588EE93E08093260A9093BC
S1130130270A85E88093000A81E080930E0A809361
S11301400A0A0895E0E0F8E085E191E0808791876C
S113015083E0878381E0838780EC86830895909190
S1130160040895FFFCCF8093020808951F93CF9352
S1130170DF93EC0110E007C0FE01E80FF91F808156
S11301800E94AF001F5F812F90E0FE0101900020CC
S1130190E9F73197EC1BFD0B8E179F0768F3DF918E
S11301A0CF911F9108951092200A1092210A089568
S11301B080911006909111060895CF93DF9300D09B
S11301C01F92CDB7DEB74AE0BE016F5F7F4F0E943A
S11301D04801CE0101960E94B6002396CDBFDEBF32
S11301E0DF91CF9108956DE888E690E00E947D014B
S11301F00E9468000E9474000E9478000E9493008C
S11302000E94A200789480910140909102400E9443
S1130210DD002FE78AE196E0215080409040E1F72D
S113022000C00000F0CF1F920F920FB60F9211245E
S11302300BB60F922F933F934F935F936F937F93DC
S11302408F939F93AF93BF93CF93EF93FF93C1E0AB
S1130250C0930B0A0E94D3000E94D80080930140EF
S113026090930240C0930040FF91EF91CF91BF91D2
S1130270AF919F918F917F916F915F914F913F913A
S11302802F910F900BBE0F900FBE0F901F901895DB
S1130290BB274A3031F4992322F4BDE2909581952D
S11302A09F4F0C945401BB27FB015527AA27880FA5
S11302B0991FAA1FA41710F0A41B83955051B9F7D6
S11302C0A05DAA3308F0A95DA193009779F7B11155
S11302D0B1931192CB010C946D01DC01FC01672FE9
S11302E071917723E1F7329704C07C916D93708309
S11302F06291AE17BF07C8F30895DC0128ED20937F
S10D030034006C930895F894FFCFC5
S9030000FC
