:100000000C9454000C9473000C9473000C947300C3
:100010000C9473000C9473000C9473000C94730094
:100020000C9473000C944A010C9473000C947300AC
:100030000C9473000C9473000C9473000C94730074
:100040000C9473000C9473000C9473000C94730064
:100050000C9473000C947D010C9473000C94730049
:100060000C9473000C9473000C9473000C94730044
:100070000C9473000C9473000C9473000C94730034
:100080000C9473000C9473000C9473000C94730024
:100090000C9473000C9473000C9473000C94730014
:1000A0000C9473000C94730011241FBECFEFCDBFCE
:1000B000DFE7DEBF10E4A0E0B0E4E8E7F4E000E052
:1000C0000BBF02C007900D92AE30B107D9F720E404
:1000D000AEE0B0E401C01D92A831B207E1F70E9482
:1000E00032010C943A020C94000089E580930004DC
:1000F0001092400480E68093600498E0909350044E
:1001000080936504089586E88093B000089582E89E
:100110008093000688E08093020680E480930906BD
:1001200081E080930E0680E180930506089584E6C1
:1001300090E08093260A9093270A89E88093000A2A
:1001400081E080930E0A80930A0A0895E0E0F8E0C7
:1001500080E890E08087918783E0878380E88583CB
:1001600081E0838780EC868308959091040895FF51
:10017000FCCF8093020808951F93CF93DF93EC0187
:1001800010E007C0FE01E80FF91F80810E94B50052
:100190001F5F812F90E0FE0101900020E9F7319769
:1001A000EC1BFD0B8E179F0768F3DF91CF911F911A
:1001B0000895E0E0FAE08081816080830895F894FA
:1001C000E0E0FAE080818E7F80831092200A109216
:1001D000210A789408951092200A1092210A089515
:1001E00082E080930A0680911540813021F482E0FC
:1001F0008093080603C081E0809308068FE99FE0A2
:100200000197F1F700C00000E0E0F6E08081816036
:1002100080838FE99FE00197F1F700C0000081E043
:1002200080930A0608958091100690911106089512
:10023000CF93DF9300D01F92CDB7DEB740E1BE0170
:100240006F5F7F4F0E940502CE0101960E94BC00A5
:1002500080E090E40E94BC002396CDBFDEBFDF911A
:10026000CF91089588ED84BF8DE98093680085E182
:10027000809313010E9475000E9483000E948700F2
:100280000E9497000E94DF000E94A6000E94F000DA
:100290007894FFCF1F920F920FB60F9211240BB6D6
:1002A0000F922F933F934F935F936F937F938F930F
:1002B0009F93AF93BF93CF93EF93FF93C1E0C0930E
:1002C0000B0A0E94EB000E9413010E941801C093C8
:1002D0000F40FF91EF91CF91BF91AF919F918F917F
:1002E0007F916F915F914F913F912F910F900BBE36
:1002F0000F900FBE0F901F9018951F920F920FB680
:100300000F9211240BB60F922F933F934F935F934D
:100310006F937F938F939F93AF93BF93CF93EF93FD
:10032000FF93809100088A3091F08D3081F0909198
:100330001440933060F4E0911440F0E0E05FFF4B34
:100340008083809114408F5F8093144041C010924D
:10035000144062E070E480E190E40E94FC01892B8B
:1003600079F4C1E0C09315400E94F0000E94D900CA
:10037000C0930E4080E28093650480E4809366041D
:1003800066E070E480E190E40E94FC01892B79F43E
:10039000109215400E94F0000E94D90081E08093E5
:1003A0000E4080E48093650480E2809366046AE0F6
:1003B00070E480E190E40E94FC01892B49F41092E2
:1003C0000F400E94DF0010920E4080E6809365048B
:1003D000FF91EF91CF91BF91AF919F918F917F91BD
:1003E0006F915F914F913F912F910F900BBE0F90A6
:1003F0000FBE0F901F901895FB01DC018D910190AD
:1004000080190110D9F3990B0895BB274A3031F4B4
:10041000992322F4BDE2909581959F4F0C9411028F
:10042000BB27FB015527AA27880F991FAA1FA417CE
:1004300010F0A41B83955051B9F7A05DAA3308F0C2
:10044000A95DA193009779F7B111B1931192CB01F6
:100450000C942A02DC01FC01672F71917723E1F7EC
:10046000329704C07C916D9370836291AE17BF0781
:08047000C8F30895F894FFCFD2
:0E0478000A0068756C00726177007374700082
:00000001FF
