S01600004D657373756E675F5374756469652E737265635F
S11300000C9454000C9473000C9473000C947300BF
S11300100C9473000C9473000C9473000C94730090
S11300200C9473000C9447010C9473000C947300AB
S11300300C9473000C9473000C9473000C94730070
S11300400C9473000C9473000C9473000C94730060
S11300500C9473000C9473000C9473000C94730050
S11300600C9473000C9473000C9473000C94730040
S11300700C9473000C9473000C9473000C94730030
S11300800C9473000C9473000C9473000C94730020
S11300900C9473000C9473000C9473000C94730010
S11300A00C9473000C94730011241FBECFEFCDBFCA
S11300B0DFE7DEBF10E4A0E0B0E4E2E7F3E000E055
S11300C00BBF02C007900D92A230B107D9F720E40C
S11300D0A2E0B0E401C01D92A630B207E1F70E948D
S11300E017010C94B7010C94000089E58093000477
S11300F01092400480E68093600488E0809350046A
S1130100089586E88093B0000895E0E0F6E082E880
S113011080838DE08093020682E08093080680E469
S11301208093090691E090930E068081816080831C
S1130130E7EEF3E03197F1F700C0000090930A0670
S1130140089588E893E18093260A9093270A85E826
S11301508093000A81E080930E0A80930A0A08952E
S1130160E0E0F8E082E896E08087918783E0878387
S113017081E0838780EC868308959091040895FF3D
S1130180FCCF8093020808951F93CF93DF93EC0173
S113019010E007C0FE01E80FF91F80810E94BD0036
S11301A01F5F812F90E0FE0101900020E9F7319755
S11301B0EC1BFD0B8E179F0768F3DF91CF911F9106
S11301C00895E0E0FAE08081816080830895F894E6
S11301D0E0E0FAE080818E7F80831092200A109202
S11301E0210A789408951092200A1092210A089501
S11301F080911006909111060895CF93DF9300D05B
S11302001F92CDB7DEB74AE0BE016F5F7F4F0E94F9
S11302107C01CE0101960E94C40080E090E40E941B
S1130220C4002396CDBFDEBFDF91CF9108956DE862
S113023088E690E00E94B1010E9475000E9481004E
S11302400E9485000E94A1000E94B00078948091D1
S1130250480480FD17C080910240882369F0809192
S113026003408823A1F380910440909105400E94AB
S1130270FD0010920340EBCF0E94E10081E08093E7
S11302800240E5CF0E94E70010920240E0CF1F92A7
S11302900F920FB60F9211240BB60F922F933F9328
S11302A04F935F936F937F938F939F93AF93BF937A
S11302B0CF93EF93FF93C1E0C0930B0A0E94F30026
S11302C00E94F8008093044090930540C09303403B
S11302D0FF91EF91CF91BF91AF919F918F917F91BA
S11302E06F915F914F913F912F910F900BBE0F90A3
S11302F00FBE0F901F901895BB274A3031F49923F5
S113030022F4BDE2909581959F4F0C948801BB2700
S1130310FB015527AA27880F991FAA1FA41710F0BD
S1130320A41B83955051B9F7A05DAA3308F0A95DC9
S1130330A193009779F7B111B1931192CB010C9469
S1130340A101DC01FC01672F71917723E1F732975A
S113035004C07C916D9370836291AE17BF07C8F39C
S11303600895DC0128ED209334006C930895F894EB
S1050370FFCFB9
S10503720A007B
S9030000FC
