:100000000C9454000C9466000C9466000C946600EA
:100010000C9466000C9466000C9466000C946600C8
:100020000C9466000C9435010C9466000C946600E8
:100030000C9466000C9466000C9466000C946600A8
:100040000C9466000C9466000C9466000C94660098
:100050000C9466000C9466000C9466000C94660088
:100060000C9466000C9466000C9466000C94660078
:100070000C9466000C9466000C9466000C94660068
:100080000C9466000C9466000C9466000C94660058
:100090000C9466000C9466000C9466000C94660048
:1000A0000C9466000C94660011241FBECFEFCDBFE8
:1000B000DFE7DEBF20E4A0E0B0E401C01D92A43081
:1000C000B207E1F70E9405010C94A5010C94000011
:1000D00089E5809300041092400480E680936004D8
:1000E00088E080935004089586E88093B0000895D6
:1000F000E0E0F6E082E880838DE08093020681E014
:100100008093080690E49093090680930E069081F0
:1001100091609083E7EEF3E03197F1F700C00000C3
:1001200080930A06089588EE93E08093260A9093C0
:10013000270A85E88093000A81E080930E0A809365
:100140000A0A0895E0E0F8E085E191E08087918770
:1001500083E0878381E0838780EC86830895909194
:10016000040895FFFCCF8093020808951F93CF9356
:10017000DF93EC0110E007C0FE01E80FF91F80815A
:100180000E94AF001F5F812F90E0FE0101900020D0
:10019000E9F73197EC1BFD0B8E179F0768F3DF9192
:1001A000CF911F910895E0E0FAE080818160808323
:1001B0000895F894E0E0FAE080818E7F80831092C9
:1001C000200A1092210A789408951092200A109221
:1001D000210A089580911006909111060895CF93F9
:1001E000DF9300D01F92CDB7DEB74AE0BE016F5F4C
:1001F0007F4F0E946A01CE0101960E94B6002396AD
:10020000CDBFDEBFDF91CF9108956DE888E690E025
:100210000E949F010E9468000E9474000E94780062
:100220000E9493000E94A20078948091480480FD6F
:1002300017C080910040882369F080910140882395
:10024000A1F380910240909103400E94EF00109230
:100250000140EBCF0E94D30081E080930040E5CFC6
:100260000E94D90010920040E0CF1F920F920FB66B
:100270000F9211240BB60F922F933F934F935F93DE
:100280006F937F938F939F93AF93BF93CF93EF938E
:10029000FF93C1E0C0930B0A0E94E5000E94EA00B0
:1002A0008093024090930340C0930140FF91EF91EF
:1002B000CF91BF91AF919F918F917F916F915F91FE
:1002C0004F913F912F910F900BBE0F900FBE0F904B
:1002D0001F901895BB274A3031F4992322F4BDE2D0
:1002E000909581959F4F0C947601BB27FB01552774
:1002F000AA27880F991FAA1FA41710F0A41B839583
:100300005051B9F7A05DAA3308F0A95DA1930097F9
:1003100079F7B111B1931192CB010C948F01DC01EB
:10032000FC01672F71917723E1F7329704C07C912C
:100330006D9370836291AE17BF07C8F30895DC0117
:0E03400028ED209334006C930895F894FFCFBD
:00000001FF
