:100000000C9454000C945E000C945E000C945E0002
:100010000C945E000C945E000C945E000C945E00E8
:100020000C945E000C94BA000C945E000C945E007C
:100030000C945E000C945E000C945E000C945E00C8
:100040000C945E000C945E000C945E000C945E00B8
:100050000C945E000C945E000C945E000C945E00A8
:100060000C945E000C945E000C945E000C945E0098
:100070000C945E000C945E000C945E000C945E0088
:100080000C945E000C945E000C945E000C945E0078
:100090000C945E000C945E000C945E000C945E0068
:1000A0000C945E000C945E0011241FBECFEFCDBFF8
:1000B000DFE7DEBF0E94A0000C94D2000C94000089
:1000C00089E5809300041092400480E680936004E8
:1000D00088E080935004089586E88093B0000895E6
:1000E000E0E0F6E082E880838DE08093020681E024
:1000F0008093080690E49093090680930E06908101
:1001000091609083E7EEF3E03197F1F700C00000D3
:1001100080930A06089588EE93E08093260A9093D0
:10012000270A85E88093000A81E080930E0A809375
:100130000A0A0895E0E0FAE08081816080830895F2
:100140006DE888E690E00E94CC000E9460000E946A
:100150006C000E9470000E948B000E949A007894AC
:100160002FE78AE196E0215080409040E1F700C0FF
:100170000000F6CF1F920F920FB60F9211248F93AB
:1001800081E080930B0A80E6809367048F910F9043
:100190000FBE0F901F901895DC0128ED20933400BE
:0801A0006C930895F894FFCF61
:00000001FF
