:100000000C9454000C945E000C945E000C945E0002
:100010000C945E000C945E000C945E000C945E00E8
:100020000C945E000C945E000C945E000C945E00D8
:100030000C945E000C945E000C945E000C945E00C8
:100040000C945E000C945E000C945E000C945E00B8
:100050000C945E000C945E000C945E000C945E00A8
:100060000C945E000C945E000C945E000C945E0098
:100070000C945E000C945E000C945E000C945E0088
:100080000C945E000C945E000C945E000C945E0078
:100090000C945E000C945E000C945E000C945E0068
:1000A0000C945E000C945E0011241FBECFEFCDBFF8
:1000B000DFE7DEBF0E94A3000C9406010C94000051
:1000C00089E5809300041092400480E680936004E8
:1000D00088E080935004089586E88093B0000895E6
:1000E000E0E0F6E0808182688083A2E0B6E08C9157
:1000F0008D608C9381E08093080680E480930906EC
:10010000AEE0B6E08C9181608C93808181608083C9
:1001100087EE93E00197F1F700C00000EAE0F6E017
:10012000808181608083089588EE93E08093260A21
:100130009093270A85E88093000A81E080930E0A55
:1001400080930A0A08956DE888E690E00E94000115
:100150000E9460000E946C000E9470000E94940047
:100160008091480480FD2FC0A5E6B4E080E28C9326
:100170002FE73AE146E0215030404040E1F700C02F
:100180000000E6E6F4E080838FE79AE126E0815004
:1001900090402040E1F700C0000080E48C933FE7EE
:1001A0004AE196E0315040409040E1F700C0000045
:1001B00080832FE73AE146E0215030404040E1F7AC
:1001C00000C00000CDCFE5E6F4E090E2908380E44B
:1001D00080832FE738E341E0215030404040E1F791
:1001E00000C00000E6E6F4E0908380838FE798E3A8
:1001F00021E0815090402040E1F700C00000B0CFE6
:10020000DC0128ED209334006C930895F894FFCF1F
:00000001FF
