:100000000C9454000C9466000C9466000C946600EA
:100010000C9466000C9466000C9466000C946600C8
:100020000C9466000C94E5000C9466000C94660039
:100030000C9466000C9466000C9466000C946600A8
:100040000C9466000C9466000C9466000C94660098
:100050000C9466000C9466000C9466000C94660088
:100060000C9466000C9466000C9466000C94660078
:100070000C9466000C9466000C9466000C94660068
:100080000C9466000C9466000C9466000C94660058
:100090000C9466000C9466000C9466000C94660048
:1000A0000C9466000C94660011241FBECFEFCDBFE8
:1000B000DFE7DEBF20E4A0E0B0E401C01D92A43081
:1000C000B207E1F70E94BE000C941C010C940000E2
:1000D00089E5809300041092400480E680936004D8
:1000E00088E080935004089586E88093B0000895D6
:1000F000E0E0F6E082E880838DE08093020681E014
:100100008093080690E49093090680930E069081F0
:1001100091609083E7EEF3E03197F1F700C00000C3
:1001200080930A06089580E29EE48093260A9093C5
:10013000270A85E88093000A81E080930E0A809365
:100140000A0A0895E0E0FAE08081816080830895E2
:10015000F894E0E0FAE080818E7F80831092200A9C
:100160001092210A789408951092200A1092210A80
:100170000895809110069091110608956DE888E623
:1001800090E00E9416010E9468000E9474000E9484
:1001900078000E9493000E94A20078948091480405
:1001A00080FD10C080910040882349F0809101407B
:1001B0008823A1F38091024090910340EFCF0E94E9
:1001C000A200ECCF0E94A800E9CF1F920F920FB6B9
:1001D0000F9211240BB60F922F933F934F935F937F
:1001E0006F937F938F939F93AF93BF93EF93FF93FF
:1001F00081E080930B0A0E94B4000E94B9008093B2
:10020000024090930340FF91EF91BF91AF919F9176
:100210008F917F916F915F914F913F912F910F90AF
:100220000BBE0F900FBE0F901F901895DC0128EDAC
:0C023000209334006C930895F894FFCFE5
:00000001FF
