:100000000C9454000C945E000C945E000C945E0002
:100010000C945E000C945E000C945E000C945E00E8
:100020000C945E000C945E000C945E000C945E00D8
:100030000C945E000C945E000C945E000C945E00C8
:100040000C945E000C945E000C945E000C945E00B8
:100050000C945E000C945E000C945E000C945E00A8
:100060000C945E000C945E000C945E000C945E0098
:100070000C945E000C945E000C945E000C945E0088
:100080000C945E000C945E000C945E000C945E0078
:100090000C945E000C945E000C945E000C945E0068
:1000A0000C945E000C945E0011241FBECFEFCDBFF8
:1000B000DFE7DEBF0E946C000C94C9000C940000C6
:1000C00089E5809300041092400480E680936004E8
:1000D00088E08093500408956DE888E690E00E94DF
:1000E000C3000E9460008091480480FD2FC0A5E6F7
:1000F000B4E080E28C932FE73AE146E021503040B3
:100100004040E1F700C00000E6E6F4E080838FE7BE
:100110009AE126E0815090402040E1F700C00000C5
:1001200080E48C933FE74AE196E0315040409040B4
:10013000E1F700C0000080832FE73AE146E021505C
:1001400030404040E1F700C00000CDCFE5E6F4E0EC
:1001500090E2908380E480832FE738E341E02150F0
:1001600030404040E1F700C00000E6E6F4E0908354
:1001700080838FE798E321E0815090402040E1F7B1
:1001800000C00000B0CFDC0128ED209334006C9358
:060190000895F894FFCF72
:00000001FF
